{
  "contractName": "GradeTracker",
  "abi": [
    {
      "anonymous": false,
      "inputs": [
        {
          "indexed": false,
          "name": "courseId",
          "type": "string"
        },
        {
          "indexed": false,
          "name": "courseTitle",
          "type": "string"
        }
      ],
      "name": "CourseAdded",
      "type": "event",
      "signature": "0x0d5928d81b25d7aef697ef4ac00f8106b1dc8ff9d7f3a743f3e34f7e3f6020b6"
    },
    {
      "anonymous": false,
      "inputs": [
        {
          "indexed": false,
          "name": "courseId",
          "type": "string"
        },
        {
          "indexed": false,
          "name": "studentId",
          "type": "string"
        }
      ],
      "name": "StudentAdded",
      "type": "event",
      "signature": "0xcd178f088a063a6836a47e704c2450ec7339d32c39e0d33622b107ad86d59b54"
    },
    {
      "anonymous": false,
      "inputs": [
        {
          "indexed": false,
          "name": "courseId",
          "type": "string"
        },
        {
          "indexed": false,
          "name": "studentId",
          "type": "string"
        },
        {
          "indexed": false,
          "name": "grade",
          "type": "uint256"
        }
      ],
      "name": "StudentGraded",
      "type": "event",
      "signature": "0xac0ac56c385d1e8376de0b663c487727623e533a5fd71ea6310279fb380bdd03"
    },
    {
      "constant": false,
      "inputs": [
        {
          "name": "courseId",
          "type": "string"
        },
        {
          "name": "courseTitle",
          "type": "string"
        }
      ],
      "name": "addCourse",
      "outputs": [],
      "payable": false,
      "stateMutability": "nonpayable",
      "type": "function",
      "signature": "0x2b75565d"
    },
    {
      "constant": false,
      "inputs": [
        {
          "name": "courseId",
          "type": "string"
        },
        {
          "name": "studentId",
          "type": "string"
        }
      ],
      "name": "addStudentToCourse",
      "outputs": [],
      "payable": false,
      "stateMutability": "nonpayable",
      "type": "function",
      "signature": "0xc104e2d5"
    },
    {
      "constant": false,
      "inputs": [
        {
          "name": "courseId",
          "type": "string"
        },
        {
          "name": "studentId",
          "type": "string"
        },
        {
          "name": "grade",
          "type": "uint256"
        }
      ],
      "name": "gradeStudentForACourse",
      "outputs": [],
      "payable": false,
      "stateMutability": "nonpayable",
      "type": "function",
      "signature": "0xd90eaca4"
    },
    {
      "constant": true,
      "inputs": [
        {
          "name": "courseId",
          "type": "string"
        }
      ],
      "name": "getClassAverageGrade",
      "outputs": [
        {
          "name": "",
          "type": "uint256"
        }
      ],
      "payable": false,
      "stateMutability": "view",
      "type": "function",
      "signature": "0xce5f9801"
    },
    {
      "constant": true,
      "inputs": [
        {
          "name": "courseId",
          "type": "string"
        },
        {
          "name": "studentId",
          "type": "string"
        }
      ],
      "name": "getStudentGrade",
      "outputs": [
        {
          "name": "",
          "type": "uint256"
        }
      ],
      "payable": false,
      "stateMutability": "view",
      "type": "function",
      "signature": "0xb49ca638"
    }
  ],
  "bytecode": "0x608060405234801561001057600080fd5b50611925806100206000396000f3fe60806040526004361061006d576000357c0100000000000000000000000000000000000000000000000000000000900463ffffffff1680632b75565d14610072578063b49ca638146101d1578063c104e2d514610344578063ce5f9801146104a3578063d90eaca41461057f575b600080fd5b34801561007e57600080fd5b506101cf6004803603604081101561009557600080fd5b81019080803590602001906401000000008111156100b257600080fd5b8201836020820111156100c457600080fd5b803590602001918460018302840111640100000000831117156100e657600080fd5b91908080601f016020809104026020016040519081016040528093929190818152602001838380828437600081840152601f19601f8201169050808301925050505050505091929192908035906020019064010000000081111561014957600080fd5b82018360208201111561015b57600080fd5b8035906020019184600183028401116401000000008311171561017d57600080fd5b91908080601f016020809104026020016040519081016040528093929190818152602001838380828437600081840152601f19601f8201169050808301925050505050505091929192905050506106e8565b005b3480156101dd57600080fd5b5061032e600480360360408110156101f457600080fd5b810190808035906020019064010000000081111561021157600080fd5b82018360208201111561022357600080fd5b8035906020019184600183028401116401000000008311171561024557600080fd5b91908080601f016020809104026020016040519081016040528093929190818152602001838380828437600081840152601f19601f820116905080830192505050505050509192919290803590602001906401000000008111156102a857600080fd5b8201836020820111156102ba57600080fd5b803590602001918460018302840111640100000000831117156102dc57600080fd5b91908080601f016020809104026020016040519081016040528093929190818152602001838380828437600081840152601f19601f820116905080830192505050505050509192919290505050610985565b6040518082815260200191505060405180910390f35b34801561035057600080fd5b506104a16004803603604081101561036757600080fd5b810190808035906020019064010000000081111561038457600080fd5b82018360208201111561039657600080fd5b803590602001918460018302840111640100000000831117156103b857600080fd5b91908080601f016020809104026020016040519081016040528093929190818152602001838380828437600081840152601f19601f8201169050808301925050505050505091929192908035906020019064010000000081111561041b57600080fd5b82018360208201111561042d57600080fd5b8035906020019184600183028401116401000000008311171561044f57600080fd5b91908080601f016020809104026020016040519081016040528093929190818152602001838380828437600081840152601f19601f820116905080830192505050505050509192919290505050610b13565b005b3480156104af57600080fd5b50610569600480360360208110156104c657600080fd5b81019080803590602001906401000000008111156104e357600080fd5b8201836020820111156104f557600080fd5b8035906020019184600183028401116401000000008311171561051757600080fd5b91908080601f016020809104026020016040519081016040528093929190818152602001838380828437600081840152601f19601f820116905080830192505050505050509192919290505050610f07565b6040518082815260200191505060405180910390f35b34801561058b57600080fd5b506106e6600480360360608110156105a257600080fd5b81019080803590602001906401000000008111156105bf57600080fd5b8201836020820111156105d157600080fd5b803590602001918460018302840111640100000000831117156105f357600080fd5b91908080601f016020809104026020016040519081016040528093929190818152602001838380828437600081840152601f19601f8201169050808301925050505050505091929192908035906020019064010000000081111561065657600080fd5b82018360208201111561066857600080fd5b8035906020019184600183028401116401000000008311171561068a57600080fd5b91908080601f016020809104026020016040519081016040528093929190818152602001838380828437600081840152601f19601f8201169050808301925050505050505091929192908035906020019092919050505061107e565b005b6000809050816000846040518082805190602001908083835b6020831015156107265780518252602082019150602081019050602083039250610701565b6001836020036101000a0380198251168184511680821785525050505050509050019150509081526020016040518091039020908051906020019061076c929190611854565b5060008090505b60018054905081101561082f57838051906020012060018281548110151561079757fe5b9060005260206000200160405180828054600181600116156101000203166002900480156107fc5780601f106107da5761010080835404028352918201916107fc565b820191906000526020600020905b8154815290600101906020018083116107e8575b505091505060405180910390201415156108195760009150610822565b6001915061082f565b8080600101915050610773565b50801515610877576001839080600181540180825580915050906001820390600052602060002001600090919290919091509080519060200190610874929190611854565b50505b7f0d5928d81b25d7aef697ef4ac00f8106b1dc8ff9d7f3a743f3e34f7e3f6020b68383604051808060200180602001838103835285818151815260200191508051906020019080838360005b838110156108de5780820151818401526020810190506108c3565b50505050905090810190601f16801561090b5780820380516001836020036101000a031916815260200191505b50838103825284818151815260200191508051906020019080838360005b83811015610944578082015181840152602081019050610929565b50505050905090810190601f1680156109715780820380516001836020036101000a031916815260200191505b5094505050505060405180910390a1505050565b6000600115156109958484611336565b15151415610a79576002836040518082805190602001908083835b6020831015156109d557805182526020820191506020810190506020830392506109b0565b6001836020036101000a0380198251168184511680821785525050505050509050019150509081526020016040518091039020826040518082805190602001908083835b602083101515610a3e5780518252602082019150602081019050602083039250610a19565b6001836020036101000a0380198251168184511680821785525050505050509050019150509081526020016040518091039020549050610b0d565b6040517f08c379a00000000000000000000000000000000000000000000000000000000081526004018080602001828103825260248152602001807f436f757273654964206f722053747564656e74496420646f65736e277420657881526020017f697374730000000000000000000000000000000000000000000000000000000081525060400191505060405180910390fd5b92915050565b6020604051908101604052806000815250805190602001206000836040518082805190602001908083835b602083101515610b635780518252602082019150602081019050602083039250610b3e565b6001836020036101000a03801982511681845116808217855250505050505090500191505090815260200160405180910390206040518082805460018160011615610100020316600290048015610bf15780601f10610bcf576101008083540402835291820191610bf1565b820191906000526020600020905b815481529060010190602001808311610bdd575b50509150506040518091039020141515610d8c5760006002836040518082805190602001908083835b602083101515610c3f5780518252602082019150602081019050602083039250610c1a565b6001836020036101000a0380198251168184511680821785525050505050509050019150509081526020016040518091039020826040518082805190602001908083835b602083101515610ca85780518252602082019150602081019050602083039250610c83565b6001836020036101000a0380198251168184511680821785525050505050509050019150509081526020016040518091039020819055506003826040518082805190602001908083835b602083101515610d175780518252602082019150602081019050602083039250610cf2565b6001836020036101000a0380198251168184511680821785525050505050509050019150509081526020016040518091039020819080600181540180825580915050906001820390600052602060002001600090919290919091509080519060200190610d85929190611854565b5050610dfa565b6040517f08c379a00000000000000000000000000000000000000000000000000000000081526004018080602001828103825260168152602001807f636f7572736520646f6573206e6f74206578697374730000000000000000000081525060200191505060405180910390fd5b7fcd178f088a063a6836a47e704c2450ec7339d32c39e0d33622b107ad86d59b548282604051808060200180602001838103835285818151815260200191508051906020019080838360005b83811015610e61578082015181840152602081019050610e46565b50505050905090810190601f168015610e8e5780820380516001836020036101000a031916815260200191505b50838103825284818151815260200191508051906020019080838360005b83811015610ec7578082015181840152602081019050610eac565b50505050905090810190601f168015610ef45780820380516001836020036101000a031916815260200191505b5094505050505060405180910390a15050565b60006020604051908101604052806000815250805190602001206000836040518082805190602001908083835b602083101515610f595780518252602082019150602081019050602083039250610f34565b6001836020036101000a03801982511681845116808217855250505050505090500191505090815260200160405180910390206040518082805460018160011615610100020316600290048015610fe75780601f10610fc5576101008083540402835291820191610fe7565b820191906000526020600020905b815481529060010190602001808311610fd3575b5050915050604051809103902014151561100b57611004826115db565b9050611079565b6040517f08c379a00000000000000000000000000000000000000000000000000000000081526004018080602001828103825260178152602001807f436f75727365496420646f65736e27742065786973747300000000000000000081525060200191505060405180910390fd5b919050565b6001151561108c8484611336565b15151480156110a95750600081101580156110a8575060648111155b5b1561118c57806002846040518082805190602001908083835b6020831015156110e757805182526020820191506020810190506020830392506110c2565b6001836020036101000a0380198251168184511680821785525050505050509050019150509081526020016040518091039020836040518082805190602001908083835b602083101515611150578051825260208201915060208101905060208303925061112b565b6001836020036101000a038019825116818451168082178552505050505050905001915050908152602001604051809103902081905550611220565b6040517f08c379a00000000000000000000000000000000000000000000000000000000081526004018080602001828103825260248152602001807f636f757273654964206f722073747564656e74496420646f65736e277420657881526020017f697374730000000000000000000000000000000000000000000000000000000081525060400191505060405180910390fd5b7fac0ac56c385d1e8376de0b663c487727623e533a5fd71ea6310279fb380bdd03838383604051808060200180602001848152602001838103835286818151815260200191508051906020019080838360005b8381101561128e578082015181840152602081019050611273565b50505050905090810190601f1680156112bb5780820380516001836020036101000a031916815260200191505b50838103825285818151815260200191508051906020019080838360005b838110156112f45780820151818401526020810190506112d9565b50505050905090810190601f1680156113215780820380516001836020036101000a031916815260200191505b509550505050505060405180910390a1505050565b60006020604051908101604052806000815250805190602001206000846040518082805190602001908083835b6020831015156113885780518252602082019150602081019050602083039250611363565b6001836020036101000a038019825116818451168082178552505050505050905001915050908152602001604051809103902060405180828054600181600116156101000203166002900480156114165780601f106113f4576101008083540402835291820191611416565b820191906000526020600020905b815481529060010190602001808311611402575b505091505060405180910390201415156115d05760606003846040518082805190602001908083835b602083101515611464578051825260208201915060208101905060208303925061143f565b6001836020036101000a0380198251168184511680821785525050505050509050019150509081526020016040518091039020805480602002602001604051908101604052809291908181526020016000905b82821015611573578382906000526020600020018054600181600116156101000203166002900480601f01602080910402602001604051908101604052809291908181526020018280546001816001161561010002031660029004801561155f5780601f106115345761010080835404028352916020019161155f565b820191906000526020600020905b81548152906001019060200180831161154257829003601f168201915b5050505050815260200190600101906114b7565b50505050905060008090505b81518110156115cd578380519060200120828281518110151561159e57fe5b906020019060200201518051906020012014156115c0576001925050506115d5565b808060010191505061157f565b50505b600090505b92915050565b6000806000905060606003846040518082805190602001908083835b60208310151561161c57805182526020820191506020810190506020830392506115f7565b6001836020036101000a0380198251168184511680821785525050505050509050019150509081526020016040518091039020805480602002602001604051908101604052809291908181526020016000905b8282101561172b578382906000526020600020018054600181600116156101000203166002900480601f0160208091040260200160405190810160405280929190818152602001828054600181600116156101000203166002900480156117175780601f106116ec57610100808354040283529160200191611717565b820191906000526020600020905b8154815290600101906020018083116116fa57829003601f168201915b50505050508152602001906001019061166f565b50505050905060008090505b815181101561183d576002856040518082805190602001908083835b6020831015156117785780518252602082019150602081019050602083039250611753565b6001836020036101000a038019825116818451168082178552505050505050905001915050908152602001604051809103902082828151811015156117b957fe5b906020019060200201516040518082805190602001908083835b6020831015156117f857805182526020820191506020810190506020830392506117d3565b6001836020036101000a038019825116818451168082178552505050505050905001915050908152602001604051809103902054830192508080600101915050611737565b5080518281151561184a57fe5b0492505050919050565b828054600181600116156101000203166002900490600052602060002090601f016020900481019282601f1061189557805160ff19168380011785556118c3565b828001600101855582156118c3579182015b828111156118c25782518255916020019190600101906118a7565b5b5090506118d091906118d4565b5090565b6118f691905b808211156118f25760008160009055506001016118da565b5090565b9056fea165627a7a72305820f1db97e6dd6a095c103da7998b27917af0f200da553f572c8fc6dd266a7af6520029",
  "source": "pragma solidity ^0.5.0;\n\ncontract GradeTracker{\n\n    mapping(string=>string) courses;\n    string[] courseIds;\n    mapping(string=>mapping(string=>uint)) studentsDetails;\n    mapping(string=>string[]) courseStudentIds;\n\n    //CourseAdded event\n    event CourseAdded(string courseId, string courseTitle);\n    //StudentAdded event\n    event StudentAdded(string courseId, string studentId);\n    //StudentGraded event\n    event StudentGraded(string courseId, string studentId, uint grade);\n\n    //This function records a course with courseId and courseTitle and finally emits the CourseAdded event\n    function addCourse(string memory courseId, string memory courseTitle) public {\n        bool exists=false;\n        courses[courseId]=courseTitle;\n        for(uint i=0;i<courseIds.length;i++){\n            if(keccak256(bytes(courseIds[i])) != keccak256(bytes(courseId))){\n                exists=false;\n            }else{\n                exists=true;\n                break;\n            }\n        }\n        if(!exists){\n            courseIds.push(courseId);\n        }\n        emit CourseAdded(courseId, courseTitle);\n    }\n    //This function adds student to a course and finally emits the StudentAdded event \n    function addStudentToCourse(string memory courseId, string memory studentId) public{\n        if(keccak256(bytes(courses[courseId])) != keccak256((bytes(\"\")))){\n            studentsDetails[courseId][studentId]=0;\n            courseStudentIds[courseId].push(studentId);\n        }else{\n            revert(\"course does not exists\");\n        }\n        emit StudentAdded(courseId, studentId);\n    }\n    //This function will grade a student for a particular cours and finally emits the StudentGraded event\n    function gradeStudentForACourse(string memory courseId, string memory studentId, uint grade) public{\n        if((checkCourseAndStudentExists(courseId, studentId)==true)&&(grade>=0 && grade <=100)){\n            studentsDetails[courseId][studentId]=grade;\n        }else{\n            revert(\"courseId or studentId doesn't exists\");\n\n        }\n        emit StudentGraded(courseId, studentId, grade);   \n    }\n    //This function will returns the average class grade\n    function getClassAverageGrade(string memory courseId) public view returns (uint) {\n        if(keccak256(bytes(courses[courseId])) != keccak256((bytes(\"\")))){\n            return classAverage(courseId);\n        }else{\n            revert(\"CourseId doesn't exists\");\n\n        }\n    }\n    //This function will returns the student grade for a particular course\n    function getStudentGrade(string memory courseId, string memory studentId) public view returns (uint) {\n        if(checkCourseAndStudentExists(courseId, studentId)==true){\n            return studentsDetails[courseId][studentId];\n        }else{\n            revert(\"CourseId or StudentId doesn't exists\");\n        }\n    }\n    //This internal function will retruns True/False based on studentId and the courseId\n    function checkCourseAndStudentExists(string memory courseId, string memory studentId) internal view returns(bool){\n        if(keccak256(bytes(courses[courseId])) != keccak256((bytes(\"\")))){\n            string[] memory studentIds=courseStudentIds[courseId];\n            for(uint i=0;i<studentIds.length;i++){\n                if(keccak256(bytes(studentIds[i]))==keccak256(bytes(studentId))){\n                    return true;\n                }\n            }\n        }\n        return false;\n    }\n    //This internal function will returns the classAverage for a particular course\n    function classAverage(string memory courseId) internal view returns (uint) {\n        uint sum=0;\n        string[] memory studentIds=courseStudentIds[courseId];\n        for(uint i=0;i<studentIds.length;i++){\n            sum+=studentsDetails[courseId][studentIds[i]];\n        }\n        return sum/studentIds.length;\n    }\n}\n",
  "sourcePath": "/home/bharadwajambati/Desktop/truffle/GradeTracker/contracts/GradeTracker.sol",
  "compiler": {
    "name": "solc",
    "version": "0.5.0+commit.1d4f565a.Emscripten.clang"
  },
  "schemaVersion": "3.0.1",
  "updatedAt": "2019-02-11T08:53:11.581Z",
  "devdoc": {
    "methods": {}
  },
  "userdoc": {
    "methods": {}
  }
}