{
  "contractName": "GradeTracker",
  "abi": [
    {
      "anonymous": false,
      "inputs": [
        {
          "indexed": false,
          "name": "courseId",
          "type": "uint256"
        },
        {
          "indexed": false,
          "name": "courseTitle",
          "type": "string"
        }
      ],
      "name": "CourseAdded",
      "type": "event",
      "signature": "0x4baff6e1d063f396c07ce2e85db23353a5b405879415449d8f2fcd54b8ede8f9"
    },
    {
      "anonymous": false,
      "inputs": [
        {
          "indexed": false,
          "name": "courseId",
          "type": "uint256"
        },
        {
          "indexed": false,
          "name": "studentId",
          "type": "uint256"
        }
      ],
      "name": "StudentAdded",
      "type": "event",
      "signature": "0x883773d1e50f94ae87dbc228d77fbbac3ad3ce6f6ba5ac865f716682efe9da13"
    },
    {
      "anonymous": false,
      "inputs": [
        {
          "indexed": false,
          "name": "courseId",
          "type": "uint256"
        },
        {
          "indexed": false,
          "name": "studentId",
          "type": "uint256"
        },
        {
          "indexed": false,
          "name": "grade",
          "type": "uint256"
        }
      ],
      "name": "StudentGraded",
      "type": "event",
      "signature": "0x4d3f261d26f91a523a172faf0504d3cdab3dd2dd9c0ea4e86eec29835cadee10"
    },
    {
      "constant": false,
      "inputs": [
        {
          "name": "courseId",
          "type": "uint256"
        },
        {
          "name": "courseTitle",
          "type": "string"
        }
      ],
      "name": "addCourse",
      "outputs": [],
      "payable": false,
      "stateMutability": "nonpayable",
      "type": "function",
      "signature": "0x32698a09"
    },
    {
      "constant": false,
      "inputs": [
        {
          "name": "courseId",
          "type": "uint256"
        },
        {
          "name": "studentId",
          "type": "uint256"
        }
      ],
      "name": "addStudentToCourse",
      "outputs": [],
      "payable": false,
      "stateMutability": "nonpayable",
      "type": "function",
      "signature": "0x7c9f444e"
    },
    {
      "constant": false,
      "inputs": [
        {
          "name": "courseId",
          "type": "uint256"
        },
        {
          "name": "studentId",
          "type": "uint256"
        },
        {
          "name": "grade",
          "type": "uint256"
        }
      ],
      "name": "gradeStudentForACourse",
      "outputs": [],
      "payable": false,
      "stateMutability": "nonpayable",
      "type": "function",
      "signature": "0x21078b9d"
    },
    {
      "constant": true,
      "inputs": [
        {
          "name": "courseId",
          "type": "uint256"
        }
      ],
      "name": "getClassAverageGrade",
      "outputs": [
        {
          "name": "",
          "type": "uint256"
        }
      ],
      "payable": false,
      "stateMutability": "view",
      "type": "function",
      "signature": "0xd1587cb2"
    },
    {
      "constant": true,
      "inputs": [
        {
          "name": "courseId",
          "type": "uint256"
        },
        {
          "name": "studentId",
          "type": "uint256"
        }
      ],
      "name": "getStudentGrade",
      "outputs": [
        {
          "name": "",
          "type": "uint256"
        }
      ],
      "payable": false,
      "stateMutability": "view",
      "type": "function",
      "signature": "0x2f9070e8"
    }
  ],
  "bytecode": "0x608060405234801561001057600080fd5b506109a9806100206000396000f3fe60806040526004361061006d576000357c0100000000000000000000000000000000000000000000000000000000900463ffffffff16806321078b9d146100725780632f9070e8146100c157806332698a091461011a5780637c9f444e146101ec578063d1587cb214610231575b600080fd5b34801561007e57600080fd5b506100bf6004803603606081101561009557600080fd5b81019080803590602001909291908035906020019092919080359060200190929190505050610280565b005b3480156100cd57600080fd5b50610104600480360360408110156100e457600080fd5b81019080803590602001909291908035906020019092919050505061032f565b6040518082815260200191505060405180910390f35b34801561012657600080fd5b506101ea6004803603604081101561013d57600080fd5b81019080803590602001909291908035906020019064010000000081111561016457600080fd5b82018360208201111561017657600080fd5b8035906020019184600183028401116401000000008311171561019857600080fd5b91908080601f016020809104026020016040519081016040528093929190818152602001838380828437600081840152601f19601f82011690508083019250505050505050919291929050505061037e565b005b3480156101f857600080fd5b5061022f6004803603604081101561020f57600080fd5b810190808035906020019092919080359060200190929190505050610438565b005b34801561023d57600080fd5b5061026a6004803603602081101561025457600080fd5b81019080803590602001909291905050506105ee565b6040518082815260200191505060405180910390f35b6001151561028e84846106a3565b15151480156102ab5750600081101580156102aa575060648111155b5b156102de5780600260008581526020019081526020016000206000848152602001908152602001600020819055506102e3565b600080fd5b7f4d3f261d26f91a523a172faf0504d3cdab3dd2dd9c0ea4e86eec29835cadee1083838360405180848152602001838152602001828152602001935050505060405180910390a1505050565b60006001151561033f84846106a3565b1515141561037357600260008481526020019081526020016000206000838152602001908152602001600020549050610378565b600080fd5b92915050565b60008090508160008085815260200190815260200160002090805190602001906103a99291906108d8565b5060008090505b6001805490508110156103fe57836001828154811015156103cd57fe5b90600052602060002001541415156103e857600091506103f1565b600191506103fe565b80806001019150506103b0565b508015156104335760018390806001815401808255809150509060018203906000526020600020016000909192909190915055505b505050565b60206040519081016040528060008152508051906020012060008084815260200190815260200160002060405180828054600181600116156101000203166002900480156104bd5780601f1061049b5761010080835404028352918201916104bd565b820191906000526020600020905b8154815290600101906020018083116104a9575b5050915050604051809103902014151561053d57600060026000848152602001908152602001600020600083815260200190815260200160002081905550600360008381526020019081526020016000208190806001815401808255809150509060018203906000526020600020016000909192909190915055506105ab565b6040517f08c379a00000000000000000000000000000000000000000000000000000000081526004018080602001828103825260168152602001807f636f7572736520646f6573206e6f74206578697374730000000000000000000081525060200191505060405180910390fd5b7f883773d1e50f94ae87dbc228d77fbbac3ad3ce6f6ba5ac865f716682efe9da138282604051808381526020018281526020019250505060405180910390a15050565b600060206040519081016040528060008152508051906020012060008084815260200190815260200160002060405180828054600181600116156101000203166002900480156106755780601f10610653576101008083540402835291820191610675565b820191906000526020600020905b815481529060010190602001808311610661575b5050915050604051809103902014151561069957610692826107f8565b905061069e565b600080fd5b919050565b6000602060405190810160405280600081525080519060200120600080858152602001908152602001600020604051808280546001816001161561010002031660029004801561072a5780601f1061070857610100808354040283529182019161072a565b820191906000526020600020905b815481529060010190602001808311610716575b505091505060405180910390201415156107ed5760606003600085815260200190815260200160002080548060200260200160405190810160405280929190818152602001828054801561079d57602002820191906000526020600020905b815481526020019060010190808311610789575b5050505050905060008090505b81518110156107ea578382828151811015156107c257fe5b9060200190602002015114156107dd576001925050506107f2565b80806001019150506107aa565b50505b600090505b92915050565b6000806000905060606003600085815260200190815260200160002080548060200260200160405190810160405280929190818152602001828054801561085e57602002820191906000526020600020905b81548152602001906001019080831161084a575b5050505050905060008090505b81518110156108c157600260008681526020019081526020016000206000838381518110151561089757fe5b9060200190602002015181526020019081526020016000205483019250808060010191505061086b565b508051828115156108ce57fe5b0492505050919050565b828054600181600116156101000203166002900490600052602060002090601f016020900481019282601f1061091957805160ff1916838001178555610947565b82800160010185558215610947579182015b8281111561094657825182559160200191906001019061092b565b5b5090506109549190610958565b5090565b61097a91905b8082111561097657600081600090555060010161095e565b5090565b9056fea165627a7a723058201741abbbd78eefb452ed291517cc8d41e79d54a27e329761524814c460cbc4200029",
  "source": "pragma solidity ^0.5.0;\n\ncontract GradeTracker{\n\n    mapping(uint=>string) courses;\n    uint[] courseIds;\n    mapping(uint=>mapping(uint=>uint)) studentsDetails;\n    mapping(uint=>uint[]) courseStudentIds;\n\n    event CourseAdded(uint courseId, string courseTitle);\n    event StudentAdded(uint courseId, uint studentId);\n    event StudentGraded(uint courseId, uint studentId, uint grade);\n\n    function addCourse(uint courseId, string memory courseTitle) public {\n        bool exists=false;\n        courses[courseId]=courseTitle;\n        for(uint i=0;i<courseIds.length;i++){\n            if(courseIds[i] != courseId){\n                exists=false;\n            }else{\n                exists=true;\n                break;\n            }\n        }\n        if(!exists){\n            courseIds.push(courseId);\n        }\n        // emit CourseAdded(courseId, courseTitle);\n    }\n    function addStudentToCourse(uint courseId, uint studentId) public{\n        if(keccak256(bytes(courses[courseId])) != keccak256((bytes(\"\")))){\n            studentsDetails[courseId][studentId]=0;\n            courseStudentIds[courseId].push(studentId);\n        }else{\n            //Course Does not exists\n            revert(\"course does not exists\");\n        }\n        emit StudentAdded(courseId, studentId);\n    }\n    function gradeStudentForACourse(uint courseId, uint studentId, uint grade) public{\n        if((checkCourseAndStudentExists(courseId, studentId)==true)&&(grade>=0 && grade <=100)){\n            studentsDetails[courseId][studentId]=grade;\n        }else{\n            //course doesn't exists\n            revert();\n\n        }\n        emit StudentGraded(courseId, studentId, grade);   \n    }\n    function getClassAverageGrade(uint courseId) public view returns (uint) {\n        if(keccak256(bytes(courses[courseId])) != keccak256((bytes(\"\")))){\n            return classAverage(courseId);\n        }else{\n            revert();\n\n        }\n    }\n    function getStudentGrade(uint courseId, uint studentId) public view returns (uint) {\n        if(checkCourseAndStudentExists(courseId, studentId)==true){\n            return studentsDetails[courseId][studentId];\n        }else{\n            //course doesn't exists\n            revert();\n        }\n    }\n\n    function checkCourseAndStudentExists(uint courseId, uint studentId) internal view returns(bool){\n        if(keccak256(bytes(courses[courseId])) != keccak256((bytes(\"\")))){\n            uint[] memory studentIds=courseStudentIds[courseId];\n            for(uint i=0;i<studentIds.length;i++){\n                if(studentIds[i]==studentId){\n                    return true;\n                }\n            }\n        }\n        return false;\n    }\n\n    function classAverage(uint courseId) internal view returns (uint) {\n        uint sum=0;\n        uint[] memory studentIds=courseStudentIds[courseId];\n        for(uint i=0;i<studentIds.length;i++){\n            sum+=studentsDetails[courseId][studentIds[i]];\n        }\n        return sum/studentIds.length;\n    }\n}\n",
  "sourcePath": "/home/bharadwajambati/Desktop/truffle/GradeTracker/contracts/GradeTracker.sol",
  "compiler": {
    "name": "solc",
    "version": "0.5.0+commit.1d4f565a.Emscripten.clang"
  },
  "schemaVersion": "3.0.1",
  "updatedAt": "2019-02-11T05:26:09.291Z",
  "devdoc": {
    "methods": {}
  },
  "userdoc": {
    "methods": {}
  }
}